:0200000098283E
:1000060083120313FB01FA01F9018030F800F10CA9
:10001600F00C031C17287408F90775080318750FE8
:10002600FA070318FB0A0310F01F1F287408FA07C3
:1000360075080318750FFB07FB0CFA0CF90CF80C86
:10004600031C0A287B08F3007A08F2007908F100FD
:060056007808F00008002C
:0C005C008312031395011712971208007D
:10006800831603139816903083129800831686140B
:10007800061183128C1E43281A08F0003D28080038
:10008800831603138611831212150C309704080087
:10009800831603131208013EF000F1010318F10A58
:1000A80083122508F400F50103200630F2007008D9
:1000B800F4007108F500720803196728F50CF40CB0
:1000C800F513FF3E60280430F1007408F000710851
:1000D80003197228F00D7010FF3E6C28303070053F
:1000E800F3007408F0007508F100F10CF00CF1133E
:1000F800F10CF00CF113700895000F309705730898
:040108009704080050
:0E010C000030831203138C1A0130F00008003B
:10011A00831203131A08F100981C9528181218164E
:06012A007108F00008005E
:1001300083120313A201A3013030A40019308316E7
:100140009900181534208230FC00DD30FD00FD0BD5
:10015000A728FC0BA728000000000F30831686009C
:100160000F308312860007309F008316811383129D
:1001700012109210C730831692002E2044202208BD
:10018000A5004C20862070080319D3288D20700804
:10019000A4008230FC00DD30FD00FD0BCD28FC0BFF
:1001A000CD28000000002408713A0130031D003002
:1001B000F1002408513A0130031D0030F0007108AD
:1001C000F00403190129EF30A400FF30A200A301BD
:1001D000FF30A5004C20861306178612061606303F
:1001E000FB001330FC00AD30FD00FD0BF528FC0BCF
:1001F000F528FB0BF52800000000A201A301A501D2
:100200004C2024087A3A0130031D0030F100240804
:100210005A3A0130031D0030F0007108F004031950
:100220002F29F130A400FF30A200A301FF30A50068
:100230004C2086170613861606120630FB00133074
:10024000FC00AD30FD00FD0B2329FC0B2329FB0B2B
:10025000232900000000A201A301A5014C202408CD
:10026000613A0130031D0030F1002408413A0130A9
:10027000031D0030F0007108F00403195D29F3300C
:10028000A400FF30A200A301FF30A5004C20861778
:100290000617861206160630FB001330FC00AD3040
:1002A000FD00FD0B5129FC0B5129FB0B51290000CE
:1002B0000000A201A301A5014C202408733A0130DB
:1002C000031D0030F1002408533A0130031D0030B3
:1002D000F0007108F00403198B29E930A400FF3005
:1002E000A200A301FF30A5004C2086130617861636
:1002F00006160630FB001330FC00AD30FD00FD0B90
:100300007F29FC0B7F29FB0B7F2900000000A20145
:10031000A301A5014C202408783A0130031D0030C8
:10032000F1002408583A0130031D0030F000710834
:10033000F0040319B929EB30A400FF30A200A30197
:10034000FF30A5004C2086130617861606120630CD
:10035000FB001330FC00AD30FD00FD0BAD29FC0BA4
:10036000AD29FB0BAD2900000000A201A301A501EE
:100370004C202408773A0130031D0030F100240896
:10038000573A0130031D0030F0007108F0040319E2
:10039000E729ED30A400FF30A200A301FF30A50043
:1003A0004C2086170613861206160630FB00133003
:1003B000FC00AD30FD00FD0BDB29FC0BDB29FB0B4A
:1003C000DB2900000000A201A301A5014C20C228E6
:0203D000E8291A
:0403D200203400349F
:0403D600203400349B
:0403DA002034003497
:0403DE002034003493
:0403E200203400348F
:0403E600203400348B
:02400E00592136
:00000001FF
